:020000040800F2
:1000000000200020711A00086D1A00086B1A000801
:100010006B1A00086B1A00086B1A00080000000039
:100020000000000000000000000000006D1A000841
:100030006D1A0008000000006D1A0008B9020008DF
:100040006B1A00086B1A00086B1A00086B1A00087C
:100050006B1A00086B1A00086B1A00086B1A00086C
:100060006B1A00086B1A00086B1A00086B1A00085C
:100070006B1A00086B1A00086B1A00086B1A00084C
:100080006B1A00086B1A00086B1A00086B1A00083C
:100090006B1A00086B1A00086B1A00086B1A00082C
:1000A0006B1A00086B1A00086B1A00086B1A00081C
:1000B0006B1A00086B1A00086B1A00086B1A00080C
:1000C0006B1A00086B1A00086B1A00086B1A0008FC
:1000D0006B1A00086B1A00086B1A00086B1A0008EC
:1000E0006B1A00086B1A00086B1A00086B1A0008DC
:1000F0006B1A00086B1A00086B1A00086B1A0008CC
:100100006B1A00086B1A00086B1A00086B1A0008BB
:100110006B1A00086B1A00086B1A00086B1A0008AB
:100120006B1A00086B1A00086B1A00086B1A00089B
:100130006B1A00086B1A00086B1A00086B1A00088B
:100140006B1A00086B1A00086B1A0008B907000840
:10015000022901D100F032BB012901D100F092BB8C
:10016000704708B500F050FBBDE8084000F0ACBB9C
:1001700038B50D4C2378254613F0FD0F06D100F05D
:1001800057FB002802DB0223237038BD2B78012B9C
:1001900002D94FF0FF3038BD00F09CFB0028F8DB9F
:1001A000014B01221A7038BD30010020084B10B5F8
:1001B0001C465860FFF7DCFF002804DB054A536843
:1001C0000133536010BD6368002BF3D110BD00BF35
:1001D000CC0800203001002008B5FFF7E7FFA0F1B0
:1001E00084035842584108BD70B50A4B05461A7839
:1001F0000E4612F0FD0F1C4601D100F029FB2378BA
:10020000012B05D831462846BDE8704000F070BB90
:1002100070BD00BF30010020054B10B59968DC6847
:100220004A1CD2B2A2421EBFC91808749A6010BDFF
:1002300030010020064AD36891688B421FBFD11855
:100240000133DBB2087C14BFD3604FF0FF3070473E
:100250003001002038B5134C2368013321D0124DF2
:10026000124B2A689A421CD9114BD3F8103103F172
:10027000006303F520539A4213D200F02FFF01F0E0
:100280005BFC01F069FCFFF76CFF00F0C3FB00F0C2
:1002900091FB084B1C6023682A6883F30888104789
:1002A000FEE738BD0028000804280008FF270008E2
:1002B0000C00002008ED00E00D4A08B5002352F8BC
:1002C000231021B152F82310013942F823100133D1
:1002D000042BF4D1074B93F8103143B9044B9B68BE
:1002E0002BB9022000F0F4FB014B32229A6008BDCA
:1002F000CC08002030010020024BD860DA68002AC8
:10030000FCD17047CC0800202DE9F04F8046C94E43
:10031000C94D8BB004200027D6F810412F7001F092
:10032000F7FBD6F814314FF47A70584301F0E8FB2C
:10033000DFF82C9301F0F8FB01F006FCB8F1000F98
:1003400001D0C9F8008085F81071C9F808704FF025
:10035000FF37012000F0ACFBB8F1000F04D0D9F852
:100360000030002B00F0C7810020FFF71FFF029034
:10037000029B002BF0DB012000F08AFB029B442B48
:1003800000F088800DDC322B5ED004DC212B1BD0EA
:10039000312B20D0A4E1422B6AD072DC412B5ED0FD
:1003A0009EE1512B00F0918005DC452B7BD0462B44
:1003B00000F0828094E1532B00F00A81C0F2B780F4
:1003C000542B00F065818BE10220FFF705FF002828
:1003D00040F07B8184E14FF0000B0DF11C0A0220FC
:1003E000CDF810B0CDF814B0CDF818B0CDF81CB0E1
:1003F000CAF804B0CAF808B0FFF7EEFE002800F013
:100400006F81584600F03DFB0490012000F039FB5D
:100410000590022000F035FB06905FFA8BF202F0A7
:10042000FC010AAB194402F0030251F8181C9200B7
:1004300021FA02F20AF80B200BF1010BBBF10C0FB1
:10044000EBD11821504607E00220FFF7C5FE002837
:1004500000F0468179480421FFF7C6FE35E102200D
:10046000FFF7BAFE002800F03B8108217448F3E74B
:100470000220FFF7B1FE002800F0328120216D48F4
:10048000EAE70220FFF7A8FE002800F029812021DA
:100490006C48E1E70220FFF79FFE002800F0208172
:1004A00010216948D8E70220FFF796FE002800F0E7
:1004B000178180216548CFE70220FFF78DFE0028D5
:1004C00000F00E8140216248C6E70220FFF784FE5B
:1004D000002800F005810123022085F8103100F08A
:1004E000D7FA00F0E9FD4FF0000B584600F0AEFAE5
:1004F000044628B1584600F0AFFA0BF1010BF4E7BF
:10050000022085F8100100F0D3FAD6F810319C4291
:1005100007D2204600F0AFFA013040F0E380043407
:10052000F3E7002485F81041C9F80840CDE03220F7
:10053000FFF73CFEB0F1000BC0F2D2801BF0030FBE
:1005400040F0CE80D6F8102104EB0B03934200F26A
:10055000C780BBF5807F00F2C3803E4A4FF0000A9F
:10056000DA4510D04FF47A700192FFF71FFE029027
:1005700002990029C0F2B4800299019A0AF8021087
:100580000AF1010AECE7C820FFF726FE002800F078
:10059000A7802CB94FF0FF33D5F81471C5F814318A
:1005A0002C4B2BF0030BA344C4EB030A5C4500F077
:1005B0008C805AF80410204600F057FA204600F0CC
:1005C0005AFA5AF80420904240F08C800434EDE747
:1005D0000220FFF701FE002800F082804FF00008A3
:1005E000C346D6F8103198454DD2B8F1000F03D16B
:1005F0007A1C01D0079703E0404600F03CFA0790D0
:10060000D5F8183293B100222CE012F0010F4FEA16
:10061000520016BF104A024642400139F5D10F4937
:1006200041F823200133B3F5807FECD01A4608212E
:10063000EBE700BF0C000020300100201C0100206F
:10064000B42100082C0000204C0000205C00002099
:10065000DC000020440200202083B8ED4403002089
:10066000CC08002007ABD35C013283EA0B03DBB27A
:1006700005EB8303D3F81432042A83EA1B2BF1D150
:1006800008F10408ADE70AA840F81CBD0421E3E620
:100690004FF47A70FFF7A0FD10B37B1C0BD1174B02
:1006A00007A81B880221ADF81C30FFF79DFD6420D0
:1006B000FFF722FE1FE03946002000F0D6F90020A7
:1006C00000F0D9F987420DD1E9E70C4B02211B88D4
:1006D00007A8ADF81C304FF00008FFF785FD38E69D
:1006E000074B00E0074B1B88022107A8ADF81C3020
:1006F000FFF77AFD2DE60BB0BDE8F08FBC210008B6
:10070000BE210008C0210008497821290BD02229E8
:100710000BD0202901D0002070471888062894BFEC
:10072000002001207047024B13600120704700BF7A
:10073000C421000837B504460F4B00250093022260
:100740004023012100F01AFD20460095402302229B
:10075000822100F013FD20460095102303228321FF
:1007600000F00CFD2046054B7F22212103B0BDE89F
:10077000304000F0F7BD00BF8107000809070008FE
:1007800030B591B040236A46012100F01FFD0546B7
:100790000024AC4205D21DF80400FFF73DFD0134F2
:1007A000F7E711B030BD0000024B186808B100F047
:1007B000DBBC704744070020FFF7F6BF1FB50C4CA9
:1007C00004210C4800F042FC802302930A49231DB7
:1007D000019303230093CA1D084B1431084800F00D
:1007E00097FC0849206004B0BDE8104001F09BB8B8
:1007F0004407002018100240C42100080000002017
:10080000EC2200083507000810B5074C206820B11D
:10081000012100F0ADFC0023236004210348BDE862
:10082000104000F017BC00BF440700201810024021
:1008300008B5064B186828B100F096FCBDE80840E2
:10084000FFF7F8BC4FF0FF3008BD00BF44070020A1
:100850000B4B70B51A6806460C461D4602B970BDB2
:1008600064B12346402C28BF402332469BB28221EC
:10087000286800F0A4FC241A0644F1E770BD00BF0C
:100880004407002010B50F4C4FF4E131206000F018
:1008900087FB2068082100F097FB2068002100F00A
:1008A0009CFB20680C2100F0A4FB2068002100F0D4
:1008B0009AFB2068002100F0A2FB2068BDE81040F0
:1008C00000F0A3BBDC080020014B186800F0A2BBBD
:1008D000DC08002008B5054B186803689B0602D5A4
:1008E00000F0ACFB08BD4FF0FF3008BDDC08002075
:1008F00070B50446054E4518AC4205D014F8011BEE
:10090000306800F08CFBF7E770BD00BFDC0800200A
:1009100007B50023009301930093009BC72B0BD8CE
:1009200001210C4800F02FFB012802BF019B01337D
:100930000193009B0133EFE70198009964225A2349
:1009400050434B43984294BF0020012003B05DF810
:1009500004FB00BF0008014038B501F0EDF801F0DC
:10096000FBF8042001F0D4F8002540F2D92001F072
:10097000C7F82C4601F0E8F801F0F6F801280BD191
:100980004FF480610A4800F0FEFA10B90134E4B275
:1009900000E000240135EDB2112C01D83B2DEBD93C
:1009A00001F0DAF8112C94BF0020012038BD00BFFF
:1009B0000008014010B5202301220021124800F058
:1009C00087F9124C202301220021114800F080F900
:1009D00001231A462046002100F07AF92046012121
:1009E00000F0CEFA204604F584344FF4007301225F
:1009F0000021183400F06CF94FF48041204600F0DB
:100A000029FB0023236010BD000C014000080140B9
:100A10000018014010B5042000F0CAF9042000F0CD
:100A2000BFF9084B00241C60032000F0EBF92046BE
:100A300000F0E8F900F012FA032000F01FFB024B6F
:100A40001C6010BD0410024008100240FA2894BF38
:100A50004FF4006000207047FF2805D800F5803073
:100A60000530C00200F0F6B8704700F1006000F5F4
:100A7000205000F041BB00F1006000F520500068FC
:100A8000704700F10050A0F61800006870470000A1
:100A9000012802D0022803D070472021024801E03B
:100AA0000248202100F06CBA000C014000180140FF
:100AB000012802D0022803D070472021024801E01B
:100AC0000248202100F05ABA000C014000180140F1
:100AD000012802D0022803D070472021024801E0FB
:100AE0000248202100F052BA000C014000180140D9
:100AF00038B508212F4800F0A9FA2023002203214D
:100B00002D4800F0E5F820212B4800F039FA40216B
:100B1000284800F09BFA202300220321274800F0F8
:100B2000D7F82021254800F02BFA0421214800F0B5
:100B30008DFA002211460123214800F0C9F8012155
:100B40001F4800F01DFA04211A4800F07FFA4FF404
:100B50000073022203211A4800F0BAF84FF48041D2
:100B6000144800F073FA00F0C7F9FFF7D1FE04460D
:100B7000FFF7F2FE18B914B9FFF76CFB01E04FF470
:100B8000FA6401210F48FFF7E3FA02210020FFF782
:100B9000DFFA2046FFF7B8FBFFF7BAFE0028F8D1CE
:100BA000FFF7DAFE05460028F3D1FFF753FB2C468A
:100BB000EFE700BF18100240000C01400018014090
:100BC0000008014000380140064B1868064B1B889E
:100BD0009BB2B3F5007F82BF044B1B68184300F043
:100BE000350070470C200240E0F7FF1F4C20024008
:100BF00038B504460D4600F079FA124B1B889BB2BB
:100C0000B3F5007F04D9104B9C4201D90F4A00E094
:100C10000F4A136843F001031360258000F066FA61
:100C2000084B1B889BB2B3F5007F04D9064B9C424E
:100C300001D9064A00E0064A136823F00103136055
:100C400038BD00BFE0F7FF1FFFFF0708502002403C
:100C50001020024010B5044600F048FA164B1B88DD
:100C60009BB2B3F5007F09D9144B9C4206D9144BB3
:100C70001A6842F002021A60124A05E0124B1A6822
:100C800042F002021A60114A14601A6842F04002EF
:100C90001A6000F02BFA084B1B889BB2B3F5007F5B
:100CA00004D9064B9C4201D9054A00E0064A136864
:100CB00023F00203136010BDE0F7FF1FFFFF0708DA
:100CC00050200240542002401020024014200240D4
:100CD0002DE9F0434FF6E07796469C46026843685C
:100CE00000254FF00F084CFA05F4E40719D5072D3D
:100CF000ACB28BBF3C4616461E46A40098BFA4B2B9
:100D000008FA04F926EA090604F102090EFA09F9BB
:100D100001FA04F449EA04043443082D2CBF2346A5
:100D2000224601350437102DBFB2DCD1026043608A
:100D3000BDE8F083024A136843F080731360704784
:100D400000100240062822D8DFE800F004090E1344
:100D5000181A1C000F4B1868C0F3406070470D4B09
:100D60001868C0F3C06070470A4B1868C0F3407041
:100D70007047084B1868C0F340407047054B02E0CD
:100D8000054B00E0054B1868C0F340007047002099
:100D9000704700BF001002402010024024100240A3
:100DA000024608B51046FFF7CDFF0028FAD008BD6F
:100DB00006281FD8DFE800F004060B1015171900ED
:100DC000FFF7B8BF0C4A136843F0806311E00A4A8A
:100DD000136843F080530CE0074A136843F48033F0
:100DE00007E0054A02E0054A00E0054A136843F0BF
:100DF00001031360704700BF001002402010024042
:100E000024100240062822D8DFE800F004090E135F
:100E1000181A1C000E4A136823F0807316E00C4A5F
:100E2000136823F0806311E0094A136823F08053AC
:100E30000CE0074A136823F4803307E0044A02E019
:100E4000044A00E0044A136823F00103136070476A
:100E5000001002402010024024100240024A136891
:100E600023F400231360704700100240034A136804
:100E700023F0030318431060704700BF04100240C2
:100E8000034A136823F4701343EA804010607047EC
:100E900004100240034A136823F4803343EA0040FD
:100EA0001060704704100240034A136823F4404363
:100EB00043EA80301060704704100240034A136810
:100EC00023F4605343EAC0201060704704100240CE
:100ED000034A136823F4E06343EA0020106070477C
:100EE00004100240034A136823F0F00343EA0010A1
:100EF000106070470410024008B50420FFF758FF47
:100F00000420FFF74DFF0020FFF7B0FF0020FFF7A0
:100F1000E9FF0320FFF7C8FF0420FFF7D9FF0020F7
:100F2000FFF7CCFF0F4A0120136843F480031360DE
:100F300000F0B8F80A20FFF7A3FF0020FFF7AAFF90
:100F4000FFF7F8FE0020FFF72BFF0220FFF78EFFD0
:100F5000054B064A06491360064A1160064A1360AB
:100F600008BD00BF04100240006CDC022401002018
:100F700000366E01280100202C010020016170471D
:100F8000090401617047806808407047C36803EA3C
:100F9000010221EA030141EA0241016170470000B8
:100FA000064A074B90421B6804BF064B1B6801EBC7
:100FB00043034900B3FBF1F38360704700380140FD
:100FC000280100202C010020C36808290CBF23F44D
:100FD000805343F48053C3607047036923F4405344
:100FE000194301617047C36823F4C0631943C160AA
:100FF0007047C36823F00C031943C160704743690D
:1010000023F44073194341617047C36843F40053AC
:10101000C3607047C36823F40053C360704738B59A
:1010200004460D4600F00EF829462046BDE838403B
:1010300000F000B8C1F30801416070474068C0F398
:101040000800704703681B06FCD570470368194306
:1010500001607047036823EA01010160704743099A
:1010600003F1804303F504331A6800F01F000121E7
:1010700001FA00F01043186070470000032802D006
:10108000052805D07047054A136823F4802303E040
:10109000034A136823F004031360704700100240F2
:1010A00020100240034A136823F00703184310601E
:1010B000704700BF00200240054A136843F08003D8
:1010C0001360044B044A1A6002F188321A607047B8
:1010D000102002400420024023016745024A1368A1
:1010E00043F08003136070471020024008B5FFF7FB
:1010F0006BFDC307FBD408BD38B505460C4689B265
:10110000FFF776FD210CA81CBDE83840FFF770BD45
:101110002DE9F0411E460368054688461746984764
:10112000069BC0F8DC50C360079BC0F800800361D9
:10113000BDF8203047608382084B86600367084B08
:10114000C366084B83660023C0F8C830C0F8CC30B3
:10115000C0F8D030C0F8D430BDE8F0818B1300085F
:10116000FB13000881140008D0F8DC305B6A1847D4
:10117000D0F8DC309B6A03B11847704710B4D0F840
:10118000DC40A468A44610BC604737B5044600257F
:1011900003688575C575DB792A4629460095FFF7F2
:1011A000EDFFD4F8DC3029465B6820469847E369B8
:1011B0001BB103B0BDE83040184703B030BD10B4D8
:1011C000D0F8DC40E469A44610BC604710B4D0F805
:1011D000DC40246AA44610BC6047D0F8DC301B69B0
:1011E0001847D0F8DC309B691847D0F8DC305B69D1
:1011F000184710B5044601220021FFF7EEFF002337
:1012000084F82C3010BD38B50368828FC48EDB792A
:10121000A41A9C42A8BF1C46816BA4B20A44234670
:1012200000210546FFF7D2FF844205D02846FFF78C
:10123000E0FF4FF0FF3038BDAB8F20462344AB8733
:1012400038BD10B503680446DA79838F9A4211D20B
:1012500013460021826BFFF7B2FF0223226884F855
:101260002C30D379A16B0B44A363D279A38F9B1A43
:10127000A38710BD826B0021FFF7A1FF94F84430D3
:10128000002B14BF0223032384F82C30002384F89E
:101290004430A387A36310BD2DE9F74F04460E46E3
:1012A00000F1480500F1680B00F13C0900F1380835
:1012B00000F1400A2F6857B93146204604F13C033B
:1012C00004F1380203B0BDE8F04F00F07DBB317887
:1012D0006B792A790B409A4203D008355D45E9D1F4
:1012E000EAE7CDF800A04B46424631462046B847D3
:1012F0000128F2D803B0BDE8F08F38B50369044681
:1013000083638B79CA790D4643EA02238387FFF70B
:10131000C3FF10B3EB88BBB1A28F21689342C97998
:1013200008D94AB192FBF1F301FB1323B3FA83F31B
:101330005B0902E0002300E0134684F844302046B5
:10134000BDE83840FFF77DBF1A4619462046FFF733
:1013500036FF042384F82C3038BD2046BDE83840E1
:10136000FFF747BF70B5002600EBC605AC6C2CB18B
:101370000136042EF8D14FF0FF3070BD85F84C10C7
:1013800085F84D20AB64204670BD70B5044600253D
:1013900000F13006056401222946FFF726FF0823E5
:1013A000324629462046FFF711FF082804D0204680
:1013B000BDE87040FFF71DBFE38E1BB194F93020EC
:1013C000002A05DA31462046BDE87040FFF795BF98
:1013D000A28A9A42EBD32269A587A263226820469B
:1013E000D2799A4234BF05230623002284F82C3098
:1013F0001146BDE87040FFF7F8BE90F82C3010B5EC
:10140000062B044610D0072B24D0052B33D1FFF731
:10141000FAFE002833DBA28FE38E9B1A2268D27972
:1014200093422CDC062310E0FFF7EDFE002826DBBC
:1014300004F130012046FFF72FFF48B100231A4680
:1014400019462046FFF7BBFE042384F82C3010BD5C
:10145000204610E000231A461946FFF7B7FE002386
:1014600084F82C30236C1BB104F1300120469847DE
:101470000023236410BDBDE81040FFF7BABE10BDC5
:1014800090F82C3010B5032B044607D0042B0ED057
:10149000022B23D1BDE81040FFF7D3BE0723002263
:1014A00080F82C301146BDE81040FFF79EBE036C5B
:1014B00013B100F13001984794F8303053B994F8E3
:1014C0003130052B06D1618ED4F8DC30C9B25B68AF
:1014D00020469847002384F82C3010BDBDE810400A
:1014E000FFF787BEF8B50D464988044679B1036811
:1014F0000D26587C0023834207D2626806FB032234
:1015000052798A4205D00133F5E70020F8BD4FF04B
:10151000FF330133DBB2E37543B9D4F8DC30204646
:10152000DB689847D4F8C83093B922E00D225343C2
:1015300062680D3B13440022104619798A42ECD2AE
:10154000D3F809101601715801B108700132F4E79F
:101550000023A3642365A365236604F1C40604F194
:10156000D40756F8043F13B1698820469847BE4215
:10157000F7D10120F8BD19881268012984BF012123
:101580001980C37D2BB141680D2000FB031313F8B4
:10159000083C13700120704730B5C57D0D246C43A5
:1015A00040680D3C20448D880479A5420CD201246A
:1015B0001C808B88D0F809001B011B58126803B1EE
:1015C0001B781370012030BD002030BD1988012028
:1015D000022984BF02211980116800230B70126850
:1015E0005370704738B514461A882568022A84BF9C
:1015F00002221A808988C9B2FFF7F3FD003018BFB4
:1016000001202870236800225A70012038BD08B5D7
:1016100089880122C9B2FFF7E0FD012008BD08B5A5
:1016200089880022C9B2FFF7D8FD012008BD10B596
:101630000B786BB94C887F2C0AD8D0F8DC308475D5
:1016400093F8302032B149885B68C9B2984701E00D
:10165000002010BD012010BD70B51D46C37D0D22B8
:101660005A4343680D3A1A448C881379A34216D919
:10167000D2F809602201B4184B8824799C420ED913
:10168000B2580AB1137000E04BB9D0F8D83013B19A
:101690004A888988984700232B80012070BD00204C
:1016A00070BD2DE9F04F1E464B880546180A0228EA
:1016B00089B014460FD0032800F0E880012840F0DC
:1016C00022812B6813602B681A783388934228BFD5
:1016D0001346338018E12A69DBB20D275F4322608D
:1016E000D5F80480348818F807500092A54228BF26
:1016F000254608EB070B2A465946009800F0B6FC31
:1017000018F80720009B641BADF81E202B44A4B2E0
:10171000002202929BF80410BDF80820914240F28A
:10172000AF8012010592DBF8092005990A44D2F82E
:101730000880B8F1000F16D098F800704146A74213
:1017400028BF274618463A4600F090FC0346BDF8ED
:101750001E2098F80010E41B3D440A443B44A4B208
:10176000ADB2ADF81E20002201920599DBF80920E8
:10177000BDF804800A44117941457ED9152101FB49
:1017800008F8D2F80CA018461AF808700AEB0809F5
:10179000A74228BF274649463A4600F067FC034661
:1017A000BDF81E201AF80880E41B90441FFA88F840
:1017B000ADF81E80D9F80D103D443B44A4B2ADB243
:1017C000A1B1D9F811701846A742A8BF2746BFB2E9
:1017D0003A4600F04BFC0346D9F81120E41B3D4487
:1017E00090443B44A4B2ADB2ADF81E8000220392F7
:1017F000BDF80C8099F8042042453BD9D9F809205E
:10180000C8EB081812F8087002EB080AA74228BFB4
:101810002746049251463A46184600F027FC0346F4
:10182000049AE41B12F80880BDF81E203D44904441
:101830001FFA88F8ADF81E80DAF807103B44A4B20E
:10184000ADB2A1B1DAF80B701846A742A8BF27467F
:10185000BFB23A4600F00AFC0346DAF80B20E41B5C
:101860003D4490443B44A4B2ADB2ADF81E80039A0F
:101870000132BCE7019A013276E7029A013248E769
:10188000BDF81E30009A538035803AE013F0FF0314
:101890002F690AD10923BB700423FB703B70338886
:1018A000042B28BF0423338028E0A868013B58B3E9
:1018B000EA68934227DA40F209428988914222D1AC
:1018C00050F823004FEA830800F046FC0130400046
:1018D000C0B2387033880022984228BF1846308042
:1018E00033885B08013B9A4208DAAB6853F808304A
:1018F000995C07EB420359800132F1E703237B70C7
:101900002760012000E0002009B0BDE8F08F1988B1
:101910000120022984BF02211980116800230B7065
:1019200012685370704710B5002300F1C40454F8D6
:10193000042F2AB10133042BF9D14FF0FF3010BD31
:10194000323340F82310104610BD000030B44C78FC
:10195000092C06D8044D55F8244014B1A44630BCD7
:101960006047002030BC70479422000830B44C78A7
:101970000B2C06D8044D55F8244014B1A44630BCB5
:101980006047002030BC7047BC22000810B44C787F
:10199000012C03D00AD3032C04D00BE04C884CB9A3
:1019A000064C04E04C882CB9054C00E0054CA446DC
:1019B00010BC6047002010BC704700BF1F16000815
:1019C0000F160008E515000810B40C7814F0600F2D
:1019D0000FD104F01F04012C08D004D3022C08D12D
:1019E00010BCFFF7D3BF10BCFFF7B0BF10BCFFF7B0
:1019F000BDBF002010BC704708B540F29730FFF71C
:101A00002EFB064A0649002313600B6041F80C3C8C
:101A10004FF41C431360034808BD00BF405C004006
:101A2000505C0040D00700200132C2F34F0232B1B7
:101A300031F8023B013A036092B20430F7E7704795
:101A4000F0B502F0010652080D460446134633B1C4
:101A500035F8047B013B24F8027B9BB2F7E71EB10B
:101A600011F8223000F81230F0BDFEE77047000098
:101A7000184C1949194800225318834203D21359AC
:101A800053500432F8E7164A0021934202D21960FB
:101A90000433FAE7134A144C1368144D43F40073EB
:101AA0001360AC4203D254F8043B9847F9E7104C5A
:101AB000104DAC4203D254F8043B9847F9E7FFF7C6
:101AC00017F80D4C0D4DAC4203D254F8043B984727
:101AD000F9E700BF282300080000002030010020A3
:101AE000E008002014ED00E0282300082823000867
:101AF000282300082823000828230008282300089A
:101B0000024B20F07F401860704700BF14E000E0F7
:101B1000044A00F00400136823F004031843106023
:101B2000704700BF10E000E0024A136843F0020370
:101B30001360704710E000E0024A136823F00203CC
:101B40001360704710E000E0024A136843F001039D
:101B50001360704710E000E0024A136823F00103AD
:101B60001360704710E000E0024B1868C0F30040BB
:101B7000704700BF10E000E0024B41F080011960A7
:101B8000704700BF4C5C00403E2A0E4B4FEAC1013B
:101B90000CD9D00618BF203A6FEA82521B686FEA50
:101BA00052429BB219444900074B08E01B68D0071A
:101BB0009BB2194448BF0132034B4900920292B2D2
:101BC0005A507047505C00400C6000402DE9F341D2
:101BD0000F461E466B46434927F07F0C07F07F07F0
:101BE000BC00054604F180440868496804F5B8441F
:101BF00003C3236802A923F4E04323F07F033B439C
:101C00009BB22360236801EB420223F4EC4332F8D9
:101C1000082C23F0700313439BB2DDF8208023606F
:101C20000CF0FF0E3049F800BCF1000F15D1A7B140
:101C30000B682A8B9BB218442C4B40001A50394633
:101C400032462846FFF7A0FFB8F1000F31D00C2331
:101C500003FB0757C7F86C802BE00A682B8B92B206
:101C60000244520002F1804202F5C0421360B8F112
:101C7000000F04D00C2202FB0752C2F8688048F61D
:101C8000CF72D4F800C033440CEA0202226022680A
:101C900022F4E04222F0400292B282F0200242F4AA
:101CA000004242F0800222602B83BEF1000F15D16A
:101CB000BEE74CF68F7322681340236022682B8B9B
:101CC00022F4804222F0700292B282F4405242F436
:101CD000004242F080021E4422602E8302B0BDE822
:101CE000F08100BF20230008505C004008600040E5
:101CF00010B50E4A0E4940F63F731468234043F472
:101D0000004343F08003136043F60F7314682340CD
:101D100043F4004343F0800342F8043B8A42EAD193
:101D20000368DB7920335B00038310BD045C004053
:101D3000205C004010B591B92B4C002A236818BFD5
:101D4000102023F4E04323F0400308BF2020434049
:101D50001BB243F4004343F080039BB223600B06A5
:101D60001ED501F07F01890001F1804101F5B841E4
:101D70000B68002A23F4E04323F0400314BF102231
:101D8000202283EA02031BB243F4004343F08003A2
:101D90009BB20B6026D148F6CF730A68134020E04F
:101DA000890042B94CF68F7001F1804303F5B843C6
:101DB0001C682040186001F1804101F5B8410B68B2
:101DC000002A23F4804323F0700314BF4FF48052A1
:101DD0004FF4405253401BB243F4004343F080039E
:101DE0009BB20B6010BD00BF005C00400B060BD522
:101DF00001F07F01890001F1804101F5B8410868D7
:101E000000F03000102809E0890001F1804101F55F
:101E1000B841086800F44050B0F5805F14BF00205E
:101E2000012070470B0617D40C4B5A54890001F15E
:101E3000804101F5B8410B6823F4804323F070031F
:101E40009BB212B183F4005301E083F4405343F496
:101E5000004343F080030B60704700BFC8070020B9
:101E600001F07F01F8B58C0004F1804404F5B8441A
:101E70001D462368964603F03003302B28D0154FBB
:101E8000CE003A68714692B23244520002F180426A
:101E900002F5C04210882A46400000F1804000F55B
:101EA000C040FFF7C1FD39680B4B89B2314449008E
:101EB0005D502268284622F4E04222F0400292B2AD
:101EC00082F0300242F4004242F080022260F8BD0B
:101ED0000020F8BD505C004004600040F8B58D0063
:101EE00005F1804505F5B8451C462B680E4603F400
:101EF0004053B3F5405F104639D01F4FC9003A68D0
:101F00001E4B92B20A4452009B5AC3F30903A342E8
:101F100007DA3A68194B92B20A4452009C58C4F34B
:101F200009043B68164A9BB20B445B00D15A224617
:101F3000490001F1804101F5C041FFF781FD40F604
:101F40000F732A68134043F080032B600D4B9B5D99
:101F50007BB92A6822F4804222F0700292B282F4A5
:101F6000405242F4004242F080022A6001E0002028
:101F7000F8BD2046F8BD00BF505C00400C6000403A
:101F800008600040C8070020F8B5364B05461968C0
:101F90001C468EB216F4806F08D04FF6FF321A60DE
:101FA00040230383BDE8F840FFF7EFB8080433D5BA
:101FB00001F00F0116F010024FEA81030AD003F17D
:101FC000804202F5B842126812F4006F14BF022278
:101FD00001220CE040F60F7003F1804707F5B84787
:101FE000D7F800E00EEA000040F40040386001EB52
:101FF000410002441A3255F8222012B12846904777
:102000000AE040F60F7203F1804303F5B843196804
:102010000A4042F080021A60320505D54FF2FF7384
:1020200023602B6A03B19847F30405D54EF6FF737E
:1020300023606B6A03B1984716F4007F0A4E05D0FF
:102040004FF6FF532360AB6A33B19847AB6A1BB1BD
:10205000336843F4007302E0336823F400733360A1
:10206000F8BD00BF445C0040405C0040844641EA4B
:10207000000313F0030349D1403A23D30B680360F4
:102080004B6843608B688360CB68C3600B690361F6
:102090004B6943618B698361CB69C3610B6A0362DE
:1020A0004B6A43628B6A8362CB6AC3620B6B0363C6
:1020B0004B6B43638B6B8363CB6BC36340304031AB
:1020C000403ADBD230320BD30B6803604B6843607D
:1020D0008B688360CB68C36010301031103AF3D244
:1020E0000C3205D351F8043B40F8043B043AF9D2D2
:1020F000043208D0D2071CBF11F8013B00F8013BA5
:1021000001D30B8803806046704700BF082A13D3B1
:102110008B07B1D010F00303AED0C3F10403D21A81
:10212000DB071CBF11F8013B00F8013BA4D331F8D9
:10213000023B20F8023B9FE7043AD9D3013A11F859
:10214000013B00F8013BF9D20B7803704B784370E8
:102150008B7883706046704720F0030110F0030015
:10216000C0F1000051F8043B00F1040C4FEACC0C24
:102170006FF000021CBF22FA0CF213434FF0010C67
:102180004CEA0C2C4CEA0C4CA3EB0C0222EA0302A6
:1021900012EACC1204BF51F8043B0430F4D0C2F16F
:1021A000000102EA0102B2FA82F2C2F11F0200EB60
:1021B000D2007047302E312E312E30001210121303
:1021C0001211000000C20100000008090200000214
:1021D000010080FAEC210008120100020200004018
:1021E000AC26010001010102030100000000000013
:1021F0000100000000000000212200080000000093
:1022000001000000000000000C2200080904010089
:10221000020A00000049220008000000000000003F
:1022200000090400000102020100672200083622B2
:10223000000813000000052400100105240100011E
:1022400004240200052406000107050102400001E4
:1022500000000000000000000705820240000100AD
:1022600000000000000000070583031000FF0000CD
:10227000000000000000414C49454E54454B0053BE
:10228000544D333220576172536869702056322E94
:10229000300000000F1900080000000000000000DE
:1022A00000000000000000002F160008A316000820
:1022B0000000000077150008E5140008CD1500089F
:1022C000000000000000000000000000000000000E
:1022D00000000000000000000000000000000000FE
:1022E000000000009915000859160008F9190008A7
:1022F000791B0008CD1B0008F11C0008351D0008E3
:10230000251E0008ED1D0008611E0008DD1E0008E6
:10231000891F00080000000000000000000000000D
:082320000002000400000006A9
:10232800762200087F22000890220008414C494587
:102338004E54454B20D5BDBDA22053544D333200D9
:102348000000000000000000000000003344464385
:10235800343044313135453831373400000000001D
:10236800000000000000000000000000322E3000D5
:1023780000000000000000000000000040496E74EA
:1023880065726E616C2F30783038303030303030D4
:102398002F352A324B612C3235352A324B670000F3
:1023A8000000000000000000000000000000000025
:1023B8000000000000000000000000000000000015
:1023C8000000000000000000000000000000000005
:1023D80000000000000000000000000000000000F5
:1023E80000000000000000000000000000000000E5
:1023F800000000000000000000000000B5A5C6AC09
:10240800BBFA3A2053544D3332463130335A45548F
:10241800360D0AD4ADD7D353544D3332D5BDBDA2F2
:10242800BFAAB7A2B0E52056322E30000000000047
:1024380000000000000000000000000000D80700B5
:102448003000000000127A0000127A0000127A00B0
:0400000508000000EF
:00000001FF
