:020000040800F2
:10000000000002203D1C00083B1C0008391C0008B1
:10001000391C0008391C0008391C000800000000C9
:100020000000000000000000000000003B1C000871
:100030003B1C0008000000003B1C000815030008E2
:10004000391C0008391C0008391C0008391C00083C
:10005000391C0008391C0008391C0008391C00082C
:10006000391C0008391C0008391C0008391C00081C
:10007000391C0008391C0008391C0008391C00080C
:10008000391C0008391C0008391C0008391C0008FC
:10009000391C0008391C0008391C0008391C0008EC
:1000A000391C0008391C0008391C0008391C0008DC
:1000B000391C0008391C0008391C0008391C0008CC
:1000C000391C0008391C0008391C0008391C0008BC
:1000D000391C0008391C0008391C0008391C0008AC
:1000E000391C0008391C0008391C0008391C00089C
:1000F000391C0008391C0008391C0008391C00088C
:10010000391C0008391C0008391C0008391C00087B
:10011000391C0008391C0008391C0008391C00086B
:10012000391C0008391C0008391C0008391C00085B
:10013000391C0008391C0008391C0008391C00084B
:10014000391C0008391C0008391C00081508000873
:10015000391C0008391C0008391C0008391C00082B
:10016000391C0008391C0008391C0008391C00081B
:10017000391C000805080008391C0008391C000853
:10018000391C0008391C0008391C0008391C0008FB
:10019000391C0008391C0008391C0008391C0008EB
:1001A000391C0008391C0008391C0008022901D13B
:1001B00000F032BB012901D100F0C4BB704708B583
:1001C00000F07CFBBDE8084000F0DEBB38B50D4C0C
:1001D000237813F0FD0F254606D100F08FFB002891
:1001E00002DB0223237038BD2B78012B02D94FF09C
:1001F000FF3038BD00F0CEFB0028F8DB014B0122B8
:100200001A7038BD30010020084B10B558601C46EC
:10021000FFF7DCFF002804DB054A53680133536015
:1002200010BD6368002BF3D110BD00BFC4080020CF
:100230003001002008B5FFF7E7FFA0F18403584222
:10024000584108BD70B50A4B1A7812F0FD0F0546EB
:100250000E461C4601D100F05BFB2378012B05D82C
:1002600031462846BDE8704000F0A2BB70BD00BF1B
:1002700030010020054B996810B54A1CDC68D2B2E9
:10028000A2421EBFC9189A60087410BD3001002038
:10029000064AD36891688B421FBFD1180133DBB285
:1002A000087C14BFD3604FF0FF307047300100204E
:1002B00038B5134C2368013321D0124D124B2A68F4
:1002C0009A421CD9114BD3F8103103F1006303F5A6
:1002D00080439A4213D200F04DFF01F017FD01F068
:1002E00025FDFFF76CFF00F0F7FB00F0C3FB084BA8
:1002F0001C6023682A6883F308881047FEE738BD2E
:100300000040000804400008FF3F00080C000020E7
:1003100008ED00E00D4A08B5002352F8231021B182
:1003200052F82310013942F823100133042BF4D181
:10033000074B93F8103143B9044B9B682BB902204B
:1003400000F054FC014B32229A6008BDC408002022
:1003500030010020024BD860DA68002AFCD17047D7
:10036000C40800202DE9F04FC94ECA4DD6F81041FF
:10037000DFF848938BB08046002704202F7001F0EF
:10038000B1FCD6F814314FF47A70584301F0A2FC56
:1003900001F0B4FC01F0C2FCB8F1000F01D0C9F8C3
:1003A000008085F81071C9F808704FF0FF37012000
:1003B00000F00CFCB8F1000F04D0D9F80030002B8D
:1003C00000F0C7810020FFF71FFF0290029B002B67
:1003D000F0DB012000F0EAFB029B442B00F0888058
:1003E0000DDC322B5ED004DC212B1BD0312B20D036
:1003F000A4E1422B6AD072DC412B5ED09EE1512BEE
:1004000000F0918005DC452B7BD0462B00F08280EC
:1004100094E1532B00F00A81C0F2B780542B00F016
:1004200065818BE10220FFF705FF002840F07B810A
:1004300084E10DF11C0A4FF0000B0220CDF810B042
:10044000CDF814B0CDF818B0CDF81CB0CAF804B08F
:10045000CAF808B0FFF7EEFE002800F06F8158469A
:1004600000F09EFB0490012000F09AFB0590022012
:1004700000F096FB06905FFA8BF202F0FC010AABEB
:10048000194402F0030251F8181C920021FA02F2FA
:100490000AF80B200BF1010BBBF10C0FEBD118216B
:1004A000504607E00220FFF7C5FE002800F0468115
:1004B00079480421FFF7C6FE35E10220FFF7BAFEB6
:1004C000002800F03B8108217448F3E70220FFF781
:1004D000B1FE002800F0328120216D48EAE70220B9
:1004E000FFF7A8FE002800F0298120216C48E1E7F1
:1004F0000220FFF79FFE002800F0208110216948AC
:10050000D8E70220FFF796FE002800F0178180212F
:100510006548CFE70220FFF78DFE002800F00E812E
:1005200040216248C6E70220FFF784FE002800F061
:1005300005810123022085F8103100F037FB00F01F
:1005400007FE4FF0000B584600F0EAFA044628B1C7
:10055000584600F0EFFA0BF1010BF4E7022085F8A2
:10056000100100F033FBD6F810319C4207D2204630
:1005700000F010FB013040F0E3800434F3E7002486
:1005800085F81041C9F80840CDE03220FFF73CFE65
:10059000B0F1000BC0F2D2801BF0030F40F0CE8010
:1005A000D6F8102104EB0B03934200F2C780BBF591
:1005B000807F00F2C3803E4A4FF0000ADA4510D037
:1005C0004FF47A700192FFF71FFE02900299002902
:1005D000C0F2B480019A02990AF802100AF1010AE5
:1005E000ECE7C820FFF726FE002800F0A7802CB912
:1005F0004FF0FF33D5F81471C5F814312C4B2BF0A4
:10060000030BA344C4EB030A5C4500F08C805AF84A
:100610000410204600F0B8FA204600F0BBFA5AF861
:100620000420904240F08C800434EDE70220FFF774
:1006300001FE002800F082804FF00008C346D6F883
:10064000103198454DD2B8F1000F03D17A1C01D07A
:10065000079703E0404600F09DFA0790D5F818325E
:1006600093B100222CE012F0010F4FEA520016BFA6
:10067000104A024642400139F5D10F4941F8232082
:100680000133B3F5807FECD01A460821EBE700BFB9
:100690000C000020300100201C0100209C240008D8
:1006A0002C0000204C0000205C000020DC0000201A
:1006B000440200202083B8ED44030020C408002039
:1006C00007ABD35C83EA0B03DBB205EB8303013298
:1006D000D3F81432042A83EA1B2BF1D108F1040861
:1006E000ADE70AA8042140F81CBDE3E64FF47A7098
:1006F000FFF7A0FD10B37B1C0BD1174B07A81B887D
:10070000ADF81C300221FFF79DFD6420FFF722FEAB
:100710001FE03946002000F037FA002000F03AFAD6
:1007200087420DD1E9E70C4B02211B88ADF81C3044
:1007300007A8FFF787FD4FF0000838E6074B00E0F9
:10074000074B1B88ADF81C30022107A8FFF77AFD84
:100750002DE60BB0BDE8F08FA4240008A624000805
:10076000A8240008497821290BD022290BD0202960
:1007700001D0002070471888062894BF002001206F
:100780007047024B13600120704700BFAC24000883
:1007900037B5104B00930446002540230222012167
:1007A00000F0A6FD2046009540230222822100F0A1
:1007B0009FFD2046009510230322832100F098FD21
:1007C000054B7F222121204603B0BDE8304001F0D7
:1007D0001EB900BFDD0700086507000830B591B0FD
:1007E00040236A46012100F0ADFD00240546AC42DD
:1007F00005D21DF80400FFF73DFD0134F7E711B005
:1008000030BD0000024B186808B100F067BD7047AA
:1008100044070020FFF7F6BF1FB502211E481F4CFA
:1008200000F004FD4FF000511B4800F0FFFC4FF4B6
:100830004043002202211A4800F0BDFB4FF4404221
:100840000C21174800F0F4FB8023164A0293231D65
:100850000193032302F10D0100931348134B00F0A1
:1008600011FD1349206000F0AAFF124B1B68B3F57D
:10087000005F0AD1104A136843F404131360D2F8DE
:10088000CC3723F00203C2F8CC374D2004B0BDE8CA
:10089000104001F05BBA00BF30380240440700202E
:1008A00000040240B3240008A8260008000000202D
:1008B000910700083C0000503800005010B50C4C67
:1008C000432001F051FA206820B1012100F00AFD17
:1008D000002323600022114606484FF4404300F0F5
:1008E0006AFB80210448BDE8104000F0A3BC00BFB3
:1008F000440700200004024034380240034B1B68C8
:100900000BB1FFF7C5BC4FF0FF3070474407002024
:100910000B4B1A6870B506460C461D4602B970BDF1
:1009200064B1402C234628BF402332469BB282212B
:10093000286800F0FFFC241A0644F1E770BD00BFF0
:100940004407002010B50F4C4FF4E131206000F057
:100950009BFB2068082100F0AFFB2068002100F01D
:10096000B4FB20680C2100F0BCFB2068002100F0E3
:10097000B2FB2068002100F0BAFB2068BDE81040FF
:1009800000F0BBBBD4080020014B186800F0BABBD4
:10099000D408002008B5054B186803689B0602D5EB
:1009A00000F0C4FB08BD4FF0FF3008BDD4080020A4
:1009B00070B5064E04464518AC4205D014F8011B2C
:1009C000306800F0A4FBF7E770BD00BFD40800203A
:1009D00007B50023009301930093009BC72B0BD80E
:1009E00001210C4800F0DBFA012802BF019B013312
:1009F0000193009B0133EFE70198009964225A2389
:100A000050434B43984294BF0020012003B05DF84F
:100A100004FB00BF0000024038B501F077F901F097
:100A200085F9042001F05EF940F2D92001F052F975
:100A300001F074F900252C4601F080F901280BD152
:100A40004FF480610A4800F0AAFA10B90134E4B208
:100A500000E000240135EDB2112C01D83B2DEBD97B
:100A600001F064F9112C94BF0020012038BD00BFB3
:100A70000000024010B5154C0022114620464FF4EC
:100A8000804300F098FA0022114620464FF40053AC
:100A900000F091FAA4F5C05400221146012320462B
:100AA00000F089FA0121204600F076FA0022114672
:100AB0004FF4C063204600F07EFA1021044800F095
:100AC000B9FB044B4FF480121A6010BD00180240AD
:100AD000443802403038024010B5042000F05AF982
:100AE000042000F04FF90A4B00241C60032000F0A2
:100AF0007DF9204600F07AF900F0A4F9054B064A8A
:100B00001A60032000F0AAFB044B1C6010BD00BF5C
:100B10000838024004380240103000240C380240EB
:100B200017289DBF024B03EBC000406800207047B0
:100B300074250008431E162B30B41FD8104901231A
:100B4000002283420E4C05D001EBC30401336468DC
:100B50002244F6E704EBC00359680A4B1344002211
:100B60008A420BD253F8045F013501D10432F7E712
:100B700014F83000022130BC00F030BB30BC7047AC
:100B800074250008FC3F000800F1006000F580407B
:100B900000F00CBB00F1006000F580400068704779
:100BA000014BC058704700BF107AFF1F012802D0C8
:100BB000022803D070474FF4804101E04FF4005108
:100BC000014800F0E7B900BF00180240012802D038
:100BD000022803D070474FF4804101E04FF40051E8
:100BE000014800F0D9B900BF00180240012802D026
:100BF000022803D070474FF4804101E04FF40051C8
:100C0000014800F0CFB900BF001802403F4A4048F9
:100C100038B5136843F470031360402100F006FBFD
:100C20004FF48043002201213A4800F0C4F9002229
:100C300011464FF48043374800F0DFF94FF480410C
:100C4000344800F0A7F94021314800F0EFFA4FF4A2
:100C50000053002201212F4800F0ADF90022114677
:100C60004FF400532B4800F0C8F94FF400512948C5
:100C700000F090F90121264800F0D8FA0022114630
:100C80000123254800F097F90121214800F0CEFA10
:100C90004FF4C063012202211F4800F08CF94FF489
:100CA000007207211C4800F0C3F94FF4806207214D
:100CB000194800F0BDF91021184800F0B7FA18489B
:100CC00000F014F9FFF784FE0446FFF7A5FE18B9FB
:100CD00014B9FFF7EDFA01E04FF4FA64012111486D
:100CE000FFF764FA02210020FFF760FA2046FFF7C1
:100CF00039FBFFF76DFE0028F8D1FFF78DFE0546A2
:100D00000028F3D1FFF7D4FA2C46EFE788ED00E096
:100D100030380240001802400000024044380240CF
:100D20003426000800100140062822D8DFE800F031
:100D300004171C090E1015000F4B1868C0F3406013
:100D400070470D4B1868C0F3404070470A4B00E0F5
:100D50000A4B1868C0F340007047094BF9E7064B8F
:100D60001868C0F340707047034B1868C0F3C06048
:100D700070470020704700BF0038024070380240C2
:100D80007438024008B502461046FFF7CDFF002830
:100D9000FAD008BD062822D8DFE800F004171C09A5
:100DA0000E1012000E4A136843F0807316E00C4ACE
:100DB000136843F4803311E0094A02E0094A00E075
:100DC000094A136843F0010308E0054A136843F039
:100DD000805303E0024A136843F080631360704756
:100DE000003802407038024074380240062822D889
:100DF000DFE800F004171C090E1012000E4A1368F9
:100E000023F0807316E00C4A136823F4803311E05A
:100E1000094A02E0094A00E0094A136823F0010385
:100E200008E0054A136823F0805303E0024A136880
:100E300023F080631360704700380240703802402E
:100E400074380240024A136823F400231360704789
:100E500000380240034A136823F00303184310606C
:100E6000704700BF08380240034A136823F4604308
:100E700043EA40301060704708380240034A136864
:100E800023F4E05343EA80201060704708380240A2
:100E9000034A136823F0F00343EA00101060704720
:100EA0000838024030B5039C1B0603F070635208FB
:100EB000012C43F4800300F03F004FEA811147F614
:100EC000C07502F1FF3240EA030098BF02240D40D2
:100ED0001204284302F440322407104304F0E04493
:100EE000014B04431C6030BD0438024037B5044652
:100EF0000420FFF74FFF0420FFF744FF0020FFF717
:100F0000A9FF0320FFF746FF0320FFF73BFFE07B2D
:100F100000B1012000F036FF207BFFF7B9FF607BB6
:100F2000FFF7ACFFA07BFFF79FFFA579618863798E
:100F3000227920780095FFF7B5FF114A136843F036
:100F4000807313600020FFF71DFFA06800F0F6F823
:100F50000220FFF77FFF0B4A1368C3F38103022BC4
:100F6000FAD1094B22691A60084B62691A60A269BA
:100F7000074B04201A6003B0BDE83040FFF736BFCE
:100F800000380240083802402401002028010020D7
:100F90002C0100208161704709048161704700695C
:100FA00008407047436903EA010221EA030141EA6C
:100FB0000241816170472DE9F0410568C46800264F
:100FC0004FF0030C43FA06F7FF070FD577000CFA32
:100FD00007FE6FEA0E0E01FA07F80EEA05050EEAA3
:100FE000040402FA07F748EA05053C430136102ECF
:100FF000E8D10560C460BDE8F081012941680CBFFB
:1010000019439943F0B5416081680024032643FAEF
:1010100004F5ED0707D5650006FA05F721EA070193
:1010200002FA05F529430134102CF0D18160F0BD9E
:10103000F0B5076A466A00234FF00F0E42FA03F438
:10104000E50707D59D000EFA05F427EA040701FA23
:1010500005F52F430133082BF0D100234FF00F0E7D
:1010600003F1080442FA04F4E40707D59C000EFAE1
:1010700004F526EA050601FA04F426430133082B99
:10108000EED107624662F0BD084A094B10B520F464
:10109000806494421B6804BF064B1B6801EB43034A
:1010A0004900B3FBF1F3836010BD00BF00100140A5
:1010B000280100202C010020C36808290CBF23F45C
:1010C000805343F48053C3607047036923F4405353
:1010D000194301617047C36823F4C0631943C160B9
:1010E0007047C36823F00C031943C160704743691C
:1010F00023F44073194341617047C36843F40053BC
:10110000C3607047C36823F40053C360704738B5A9
:1011100004460D4600F00EF829462046BDE838404A
:1011200000F000B8C1F30801416070474068C0F3A7
:101130000800704703681B06FCD57047034A136814
:1011400023F0070318431060704700BF003C0240C3
:10115000054A136843F000431360044B044A1A60C5
:1011600002F188321A607047103C0240043C024091
:1011700023016745024A136843F000431360704738
:10118000103C0240024A1368DB03FCD4704700BFE6
:101190000C3C0240044B1A6822F440721A601A6830
:1011A00042EA002018607047103C024070B50A4CBB
:1011B0000E460546FFF7E6FF0220FFF7EBFF236828
:1011C00043F0010323602E60FFF7DCFF236823F068
:1011D0000103236070BD00BF103C024038B50C46CF
:1011E0000546FFF7CFFF20460F4CFFF7D3FF2368DC
:1011F00023F0F80323602368ED00EDB21D43256062
:10120000236843F002032360236843F480332360A0
:10121000FFF7B8FF236823F002032360236823F05D
:10122000F803236038BD00BF103C02400368194337
:1012300001607047036823EA0101016070474309B8
:1012400003F1804303F50E3300F01F001A680121FB
:1012500001FA00F01043186070470000032802D024
:10126000052805D07047054A136823F4802303E05E
:10127000034A136823F004031360704700380240E8
:10128000703802402DE9F0411E4603680546884645
:1012900017469847069BC360079B0361BDF8203043
:1012A00083820B4B03670B4BC3660B4B8366002398
:1012B000C0F8DC50C0F8008047608660C0F8C830D5
:1012C000C0F8CC30C0F8D030C0F8D430BDE8F081E0
:1012D000351A0008A51A00082B1B0008D0F8DC30CE
:1012E0005B6A1847D0F8DC309B6A03B11847704737
:1012F00010B4D0F8DC40A468A4465DF8044B604705
:1013000037B50368002504468575C575DB790095FA
:101310002A462946FFF7ECFFD4F8DC3029465B6803
:1013200020469847E3691BB103B0BDE83040184739
:1013300003B030BD10B4D0F8DC40E469A4465DF8D9
:10134000044B604710B4D0F8DC40246AA4465DF832
:10135000044B6047D0F8DC301B691847D0F8DC300C
:101360009B691847D0F8DC305B691847F8B50D4623
:101370004988044679B103680D26587C00238342CE
:1013800007D2626806FB032252798A4205D00133F4
:10139000F5E70020F8BD4FF0FF330133DBB2E37512
:1013A00043B9D4F8DC302046DB689847D4F8C8301D
:1013B000A3B924E00D226FF00C0112FB0313626845
:1013C00013440022104619798A42EAD2D3F8091050
:1013D0001601715801B108700132F4E70023A364CB
:1013E0002365A365236604F1C40604F1D40756F807
:1013F000043F13B1698820469847BE42F7D10120C7
:10140000F8BD19881268012984BF01211980C37DA4
:101410002BB141680D2000FB031313F8083C137037
:101420000120704770B5C67D40680D256FF00C0433
:1014300015FB064420448D880479A5420CD2012472
:101440001C808B88D0F8090012681B011B5803B15F
:101450001B781370012070BD002070BD198802290F
:1014600084BF02211980116800230B7012680120CB
:101470005370704738B514461A882568022A84BF0D
:1014800002221A808988C9B2FFF768FF003018BFAE
:1014900001202870236800225A70012038BD08B549
:1014A00089880122C9B2FFF755FF012008BD08B5A0
:1014B00089880022C9B2FFF74DFF012008BD10B591
:1014C0000B786BB94C887F2C0AD8D0F8DC30847547
:1014D00093F8302032B149885B68C9B2984701E07F
:1014E000002010BD012010BD70B5C27D0D241D4629
:1014F0006FF00C0314FB023243688C881A44137992
:10150000A34216D9D2F809604B882201B418247975
:101510009C420ED9B2580AB1137000E04BB9D0F812
:10152000D83013B14A888988984700232B8001203E
:1015300070BD002070BD2DE9F04F1E464B8805465A
:10154000180A022889B014460FD0032800F0EA8058
:10155000012840F024812B6813602B681A783388A7
:10156000934228BF134633801AE12A692260DBB216
:1015700003EB430703EB8707D5F80480348818F89A
:1015800007500092A54228BF254608EB070B2A46C4
:101590005946009800F06CFE009B18F80720ADF843
:1015A0001E20641B2B44A4B2002202929BF804105C
:1015B000BDF80820914240F2AF8012010592DBF89D
:1015C000092005990A44D2F80880B8F1000F16D016
:1015D00098F80070A74228BF27463A464146184669
:1015E00000F046FEBDF81E2098F800100346E41BEC
:1015F0003D440A443B44A4B2ADB2ADF81E200022E3
:1016000001920599DBF80920BDF804800A4411799C
:1016100041457ED91521D2F80CA001FB08F80AEB50
:1016200008091AF80870A74228BF27463A464946D3
:10163000184600F01DFEBDF81E201AF808809044E0
:101640001FFA88F8ADF81E80D9F80D100346E41B88
:101650003D443B44A4B2ADB2A1B1D9F81170A74248
:10166000A8BF2746BFB23A46184600F001FED9F897
:1016700011200346E41B3D4490443B44A4B2ADB268
:10168000ADF81E8000220392BDF80C8099F804206A
:1016900042453BD9D9F809200492C8EB081802EB5F
:1016A000080A12F80870A74228BF27463A46514652
:1016B000184600F0DDFD049A12F80880BDF81E20DF
:1016C00090441FFA88F8ADF81E80DAF80710034638
:1016D000E41B3D443B44A4B2ADB2A1B1DAF80B70B7
:1016E000A742A8BF2746BFB23A46184600F0C0FD41
:1016F000DAF80B200346E41B3D4490443B44A4B27B
:10170000ADB2ADF81E80039A0132BCE7019A0132F6
:1017100076E7029A013248E7009ABDF81E305380FE
:1017200035803AE013F0FF032F690AD10923BB701B
:101730000423FB703B703388042B28BF04233380C1
:1017400028E0A868013B58B3EA68934227DA898801
:1017500040F20942914222D150F823004FEA830817
:1017600000F02EFE01304000C0B23870338898423D
:1017700028BF18463080002233885B08013B9A421C
:1017800008DAAB6853F80830995C07EB4203013282
:101790005980F1E703237B702760012000E00020DF
:1017A00009B0BDE8F08F1988022984BF0221198091
:1017B000116800230B70126801205370704710B538
:1017C000002300F1C40454F8042F2AB10133042B80
:1017D000F9D14FF0FF3010BD323340F823101046DE
:1017E00010BD000030B44C78092C06D8044D55F8D3
:1017F000244014B1A44630BC6047002030BC704780
:101800005026000830B44C780B2C06D8044D55F8FF
:10181000244014B1A44630BC6047002030BC70475F
:101820007826000810B44C78012C03D00AD3032C7E
:1018300004D00CE04C8854B9074C04E04C8834B90F
:10184000064C00E0064CA4465DF8044B60470020BF
:101850005DF8044B704700BFAF1400089F140008E8
:101860007514000810B40C7814F0600F12D104F055
:101870001F04012C0AD005D3022C0BD15DF8044BB8
:10188000FFF7D0BF5DF8044BFFF7ACBF5DF8044B2A
:10189000FFF7B8BF00205DF8044B704710B5012278
:1018A00004460021FFF756FD002384F82C3010BDBC
:1018B00038B50368828FC48EDB79816BA41A9C4291
:1018C000A8BF1C46A4B20A44234600210546FFF7E0
:1018D00039FD844205D02846FFF7E0FF4FF0FF3086
:1018E00038BDAB8F2344AB87204638BD10B50368A5
:1018F000DA79838F9A42044611D213460021826B13
:10190000FFF718FD0223226884F82C30D379A16BED
:101910000B44A363D279A38F9B1AA38710BD826B5C
:101920000021FFF707FD94F84430002B14BF022379
:10193000032384F82C30002384F84430A387A36366
:1019400010BD2DE9F74F04460E4600F1480500F1A1
:10195000680B00F13C0900F1380800F1400A2F68DB
:1019600057B904F13C0304F138023146204603B074
:10197000BDE8F04FFFF776BF31786B792A790B40DD
:101980009A4203D008355D45E9D1EAE7CDF800A0D9
:101990004B46424631462046B8470128F2D803B0AC
:1019A000BDE8F08F38B5036983638B79CA7943EA60
:1019B0000223838704460D46FFF7C3FF10B3EB886D
:1019C000BBB1A28F21689342C97908D94AB192FB71
:1019D000F1F301FB1323B3FA83F35B0902E0002365
:1019E00000E0134684F844302046BDE83840FFF755
:1019F0007DBF1A4619462046FFF79CFC042384F855
:101A00002C3038BD2046BDE83840FFF747BF70B5E1
:101A1000002600EBC605AC6C2CB10136042EF8D1C3
:101A20004FF0FF3070BD85F84C1085F84D20AB6449
:101A3000204670BD70B5002500F1300604460564EF
:101A400001222946FFF78EFC08233246294620460C
:101A5000FFF778FC082804D02046BDE87040FFF767
:101A60001DBFE38E1BB194F93020002A05DA314600
:101A70002046BDE87040FFF795BFA28A9A42EBD39B
:101A80002269A2632268A587D2799A4234BF0523CE
:101A90000623002284F82C3020461146BDE8704011
:101AA000FFF760BC90F82C30062B10B5044610D020
:101AB000072B24D0052B33D1FFF7FAFE002833DBA8
:101AC000A28FE38E9B1A2268D27993422CDC0623E4
:101AD00010E0FFF7EDFE002826DB04F13001204680
:101AE000FFF72FFF48B100231A4619462046FFF79B
:101AF00021FC042384F82C3010BD204610E0002384
:101B00001A461946FFF71EFC002384F82C30236C7C
:101B10001BB104F13001204698470023236410BD17
:101B2000BDE81040FFF7BABE10BD90F82C30032B73
:101B300010B5044607D0042B0ED0022B23D1BDE8EC
:101B40001040FFF7D3BE0723002280F82C30114647
:101B5000BDE81040FFF706BC036C13B100F1300183
:101B6000984794F8303053B994F83130052B06D1AA
:101B7000618ED4F8DC30C9B25B68204698470023F8
:101B800084F82C3010BDBDE81040FFF787BE000080
:101B900008B540F21D60FFF752FB1F4B1F490222A0
:101BA0001A60083B1A6842F040021A600A6842F460
:101BB00010220A6028390A681948002AFBDA0268EC
:101BC00042F001020260026812F00101FBD11A68C2
:101BD000144842F0804242F470521A60124A13686C
:101BE00043F003031360114BA2F2DC7219604FF44F
:101BF00000731360A0F8E03052F81C3C43F001037E
:101C000042F81C3C0A4B0B4A1A600F22C3F8042806
:101C10000122C3F8F82708BD14000440380004402E
:101C200010000440C807002000080440000E0440D3
:101C30001800044010280480FEE770471A4C1B4926
:101C40001B4800225318834203D2135953500432C5
:101C5000F8E7184A0021934202D219600433FAE7E8
:101C6000154A164C1368164D43F400731360536FF6
:101C700043F470035367AC4203D254F8043B9847D3
:101C8000F9E7104C104DAC4203D254F8043B98478E
:101C9000F9E7FEF7BBFF0D4C0D4DAC4203D254F8F3
:101CA000043B9847F9E700BFDC260008000000204D
:101CB00030010020D808002014ED00E0DC260008E8
:101CC000DC260008DC260008DC260008DC260008EC
:101CD000DC260008024B20F07F401860704700BFF0
:101CE00014E000E0044A136800F0040023F0040349
:101CF00018431060704700BF10E000E0024A13680C
:101D000043F002031360704710E000E0024A1368DA
:101D100023F002031360704710E000E0024A1368EA
:101D200043F001031360704710E000E0024A1368BB
:101D300023F001031360704710E000E0024B1868C5
:101D4000C0F30040704700BF10E000E0054B4209BF
:101D500003EB820300F01F00012202FA00F018607A
:101D6000704700BF00E100E0054B420903EB82032E
:101D700000F01F00012202FA00F01860704700BF57
:101D800080E100E020B9064A136843F4804305E08F
:101D9000012804D1024A136803F48043136070479A
:101DA00000700040D0F8DC30DA6AD2F8003823F452
:101DB000FE6343EA0111C2F8001870472DE9F047AD
:101DC00011F07F06089FD0F8DCE003F07F0441D1DA
:101DD0003F2BDEF82C2002D9C2F8006909E01F2B46
:101DE00001D9012103E00F2B8CBF02210321C2F88E
:101DF0000019DEF82C20A1B2C2F81019DEF82C4030
:101E0000D4F8002942F00842C4F80029DEF82C205A
:101E100041F0005141F40021C0F8E810C2F8101B55
:101E2000DEF82C10D1F8002B42F00842C1F8002B4C
:101E3000BEF83210DEF82C209B0841EA0341916283
:101E4000B0F8E0100B449BB2A0F8E030A0F8E2300C
:101E5000BDE8F08711F0800F4FEA824531B22CD0F7
:101E6000B0F8E0C0DEF82C204FEA930906F14008F4
:101E70004CEA094A42F828A0DEF82C20490102F574
:101E80001162A4B2CC44A0F8E0C0545001F5106136
:101E9000DEF82CE045F0184242F4004251F80E40C2
:101EA0001A4342EA8652224341F80E2037B30C23EC
:101EB00003FB06008766BDE8F08706F13A0244F4AA
:101EC000002440F82240DEF82C20490102F531625E
:101ED000545001F53061DEF82CE045F0144451F81F
:101EE0000E2044F400442343134341F80E302FB135
:101EF0000C2303FB0600C766BDE8F087BDE8F0874A
:101F0000B0F8E230D0F8DC2010B5A0F8E0304FF4A3
:101F10003263D16A58580028BEBF585840F08040FC
:101F20005850A3F50070D16A4458002CB8BF4458EB
:101F300003F12003BCBF44F080444450B3F5386F34
:101F4000E7D1D36A4FF486621A6110BD10B5D0F89C
:101F5000DC3051B9DC6AD4F8000912B140F4001049
:101F600001E020F40010C4F80009080646BF01F0A3
:101F70007F0148315831490122B1DA6A8B5843F464
:101F8000001308E0D86A0A5822F400120A50DA6AEC
:101F90008B5843F080538B5010BD11F0800FD0F858
:101FA000DC301ABF01F07F01483158314901DB6A4A
:101FB000C858C0F3405070470B0611D4431858312D
:101FC00083F8E420D0F8DC30490122B1DA6A8B587A
:101FD00043F0006303E0DA6A8B5843F080638B5070
:101FE000704770B5D0F8DC50E86A01F07F014C0111
:101FF00000F511600659360317D443F40026065144
:1020000004F51064EE6AA059013140F00440A0517B
:1020100009031446181B1044002804DDE86A54F82C
:10202000046B0E50F6E7184670BD002070BD13B566
:1020300001461046B1F8F8409C4228BF1C46224693
:10204000032A0EDDD1F8DC30DB6A03F58053043A55
:102050001B6840F8043BB1F8F830043BA1F8F830B5
:10206000EEE78AB1D1F8DC30DB6A03F580531B68F8
:102070000193B1F8F830032B94BF0023043BA1F87F
:10208000F83001A900F0F4F8204602B010BD2DE9A7
:10209000F843D0F8DC30DA6A556915F40056044686
:1020A00009D05B8E4FF400515161A0F8E030BDE8DB
:1020B000F843FFF725B94FF00C084FF00109D4F8A9
:1020C000DC30DB6A770103F60813DB59DA070DD53C
:1020D00008FB06439B6E13B1F1B220469847D4F833
:1020E000DC30DB6A03F6081343F807900136042E50
:1020F000E5D1EB067ED5D4F8DC00C36A1A6A02F497
:10210000F016B6F5C02F02F00F0102D0B6F5002F81
:1021100018D101F13A054A0103F5316354F825500D
:102120009D50214402F5306391F8E410C06A002903
:102130001A5814BF4FF008414FF004410A431A5097
:10214000BDE8F883B6F5802F36D0B6F5402F7FD1A5
:102150004E0103F51167BF593F0301D402232CE060
:1021600006F5106E53F80E7047F0006743F80E70D6
:10217000C76A07F608133344D3F800C01CF0400FB9
:10218000FAD05EF807309B0DD7F810C0BCF1000FF5
:1021900007F1100EF8DA9B0103F4707343F020038B
:1021A0003B61C36A03F5116300279F51C36A103373
:1021B00018688006FCD4D1E70123C2F30A12A4F800
:1021C000F82001EB410213441A3354F823300BB1C9
:1021D00020469847B4F8F81000238B4207DAD4F869
:1021E000DC20D26A02F5805204331268F5E700233E
:1021F000A4F8F8302A0508D5236A03B19847D4F823
:10220000DC30DB6A4FF400625A61002D08DA636A41
:1022100003B19847D4F8DC30DB6A4FF000425A61D2
:102220002B0707D5A36A03B19847D4F8DC30DB6AE3
:1022300008225A61A26AD4F8DC3022B1DA6A9369C2
:1022400043F0080303E0DA6A936923F0080393611B
:10225000BDE8F883D0F8DC30DA6AD2F8043811B17E
:1022600043F0020301E023F00203C2F80438704790
:10227000844641EA000313F003036DD1403A41D391
:1022800051F8043B40F8043B51F8043B40F8043B50
:1022900051F8043B40F8043B51F8043B40F8043B40
:1022A00051F8043B40F8043B51F8043B40F8043B30
:1022B00051F8043B40F8043B51F8043B40F8043B20
:1022C00051F8043B40F8043B51F8043B40F8043B10
:1022D00051F8043B40F8043B51F8043B40F8043B00
:1022E00051F8043B40F8043B51F8043B40F8043BF0
:1022F00051F8043B40F8043B51F8043B40F8043BE0
:10230000403ABDD2303211D351F8043B40F8043B7F
:1023100051F8043B40F8043B51F8043B40F8043BBF
:1023200051F8043B40F8043B103AEDD20C3205D38F
:1023300051F8043B40F8043B043AF9D2043208D087
:10234000D2071CBF11F8013B00F8013B01D30B88F9
:1023500003806046704700BF082A13D38B078DD0D7
:1023600010F003038AD0C3F10403D21ADB071CBFA9
:1023700011F8013B00F8013B80D331F8023B20F813
:10238000023B7BE7043AD9D3013A11F8013B00F84C
:10239000013BF9D20B7803704B7843708B788370D4
:1023A00060467047000000000000000000000000D0
:1023B000000000000000000000000000000000001D
:1023C00090F800F06DE9024520F007016FF0000C75
:1023D00010F0070491F820F040F049804FF000041D
:1023E0006FF00700D1E9002391F840F000F10800F8
:1023F00082FA4CF2A4FA8CF283FA4CF3A2FA8CF330
:102400004BBBD1E9022382FA4CF200F10800A4FA96
:102410008CF283FA4CF3A2FA8CF3E3B9D1E90423EA
:1024200082FA4CF200F10800A4FA8CF283FA4CF321
:10243000A2FA8CF37BB9D1E9062301F1200182FADB
:102440004CF200F10800A4FA8CF283FA4CF3A2FAE1
:102450008CF3002BC6D0002A04BF04301A4612BAEF
:10246000B2FA82F2FDE8024500EBD2007047D1E9F2
:10247000002304F00305C4F100004FEAC50514F081
:10248000040F91F840F00CFA05F562EA05021CBF52
:1024900063EA050362464FF00004A9E7302E312EAF
:1024A000312E3000121012131211000000C2010070
:1024B0000000080902000002010080FAD42400088C
:1024C0001201000202000040AC26010001010102DD
:1024D00003010000000000000100000000000000F7
:1024E00009250008000000000100000000000000B5
:1024F000F424000809040100020A0000003125004C
:1025000008000000000000000009040000010202B1
:1025100001004F2500081E250008130000000524B7
:102520000010010524010001042402000524060016
:10253000010705010240000100000000000000004A
:1025400007058202400001000000000000000007B3
:102550000583031000FF000000000000000053543A
:102560000053544D333246343239492D4449534394
:102570004F0030000000000000400000010000009B
:1025800000400000020000000040000003000000C6
:1025900000400000040000000000010005000000F1
:1025A000000002000600000000000200070000001A
:1025B0000000020008000000000002000900000006
:1025C000000002000A000000000002000B000000F2
:1025D0000000020010000000004000001100000098
:1025E0000040000012000000004000001300000046
:1025F0000040000014000000000001001500000071
:102600000000020016000000000002001700000099
:102610000000020018000000000002001900000085
:10262000000002001A000000000002001B00000071
:10263000000002000800500102070000050600002B
:10264000000504000000000080DE800200BD0105DE
:10265000A7170008000000000000000000000000B4
:1026600000000000BF14000837150008000000003B
:10267000031400086D1300085D140008000000003A
:10268000000000000000000000000000000000004A
:10269000000000000000000000000000000000003A
:1026A00025140008E9140008911B0008A51D000866
:1026B000BD1D0008011F00084D1F0008B91F0008BC
:1026C0009B1F0008E31F00082F2000088F20000830
:0C26D00055220008000004400100000238
:1026DC005E250008612500087225000853544D330F
:1026EC003246343239492D444953434F00000000DF
:1026FC0000000000000000000000000033444643CE
:10270C003430443131354538313734000000000065
:10271C00000000000000000000000000312E30001E
:10272C0000000000000000000000000040496E7432
:10273C0065726E616C2F307830383030303030301C
:10274C002F312A31364B612C332A31364B672C31E1
:10275C002A36344B672C372A3132384B672C342AC3
:10276C0031364B672C312A36344B672C372A3132B1
:10277C00384B670000000000000000000000000063
:10278C00000000000000000000000000000000003D
:10279C00000000000000000000000000000000002D
:1027AC00000000000000000000000000B5A5C6AC51
:1027BC00BBFA3A2053544D3332463432395A4954C9
:1027CC00360D0A5354B9D9B7BDC6C0B9C0B0E5006F
:1027DC0000000000000000000000000000000000ED
:1027EC0000000000000000000000000000C01F00FE
:1027FC00A80000000024F4000024F4000024F400DD
:0400000508000000EF
:00000001FF
